{
  "_format": "hh-sol-artifact-1",
  "contractName": "CryptoExchange",
  "sourceName": "src/backend/contracts/CryptoExchange.sol",
  "abi": [
    {
      "inputs": [],
      "stateMutability": "nonpayable",
      "type": "constructor"
    },
    {
      "inputs": [
        {
          "internalType": "uint256",
          "name": "npnAmt",
          "type": "uint256"
        }
      ],
      "name": "NPNtoPMP",
      "outputs": [],
      "stateMutability": "nonpayable",
      "type": "function"
    },
    {
      "inputs": [
        {
          "internalType": "uint256",
          "name": "pmpAmt",
          "type": "uint256"
        }
      ],
      "name": "PMPtoNPN",
      "outputs": [],
      "stateMutability": "nonpayable",
      "type": "function"
    },
    {
      "inputs": [],
      "name": "airdropNPNToken",
      "outputs": [],
      "stateMutability": "nonpayable",
      "type": "function"
    },
    {
      "inputs": [],
      "name": "airdropPMPToken",
      "outputs": [],
      "stateMutability": "nonpayable",
      "type": "function"
    },
    {
      "inputs": [],
      "name": "showAvlNPN",
      "outputs": [
        {
          "internalType": "uint256",
          "name": "",
          "type": "uint256"
        }
      ],
      "stateMutability": "view",
      "type": "function"
    },
    {
      "inputs": [],
      "name": "showAvlPMP",
      "outputs": [
        {
          "internalType": "string",
          "name": "",
          "type": "string"
        }
      ],
      "stateMutability": "view",
      "type": "function"
    },
    {
      "inputs": [],
      "name": "showUsrNPN",
      "outputs": [
        {
          "internalType": "uint256",
          "name": "",
          "type": "uint256"
        }
      ],
      "stateMutability": "view",
      "type": "function"
    },
    {
      "inputs": [],
      "name": "showUsrPMP",
      "outputs": [
        {
          "internalType": "string",
          "name": "",
          "type": "string"
        }
      ],
      "stateMutability": "view",
      "type": "function"
    },
    {
      "inputs": [],
      "name": "tokenNPN",
      "outputs": [
        {
          "internalType": "contract IERC20",
          "name": "",
          "type": "address"
        }
      ],
      "stateMutability": "view",
      "type": "function"
    },
    {
      "inputs": [],
      "name": "tokenPMP",
      "outputs": [
        {
          "internalType": "contract IERC20",
          "name": "",
          "type": "address"
        }
      ],
      "stateMutability": "view",
      "type": "function"
    }
  ],
  "bytecode": "0x60806040523480156200001157600080fd5b5033600260006101000a81548173ffffffffffffffffffffffffffffffffffffffff021916908373ffffffffffffffffffffffffffffffffffffffff160217905550600260009054906101000a900473ffffffffffffffffffffffffffffffffffffffff166000604051620000869062000194565b62000093929190620002ef565b604051809103906000f080158015620000b0573d6000803e3d6000fd5b506000806101000a81548173ffffffffffffffffffffffffffffffffffffffff021916908373ffffffffffffffffffffffffffffffffffffffff160217905550600260009054906101000a900473ffffffffffffffffffffffffffffffffffffffff166001604051620001239062000194565b6200013092919062000429565b604051809103906000f0801580156200014d573d6000803e3d6000fd5b50600160006101000a81548173ffffffffffffffffffffffffffffffffffffffff021916908373ffffffffffffffffffffffffffffffffffffffff16021790555062000480565b6116cc806200170b83390190565b600082825260208201905092915050565b7f6e6170636f696e00000000000000000000000000000000000000000000000000600082015250565b6000620001eb600783620001a2565b9150620001f882620001b3565b602082019050919050565b7f4e504e0000000000000000000000000000000000000000000000000000000000600082015250565b60006200023b600383620001a2565b9150620002488262000203565b602082019050919050565b600073ffffffffffffffffffffffffffffffffffffffff82169050919050565b6000620002808262000253565b9050919050565b620002928162000273565b82525050565b6000819050919050565b6000819050919050565b6000819050919050565b6000620002d7620002d1620002cb8462000298565b620002ac565b620002a2565b9050919050565b620002e981620002b6565b82525050565b600060808201905081810360008301526200030a81620001dc565b905081810360208301526200031f816200022c565b905062000330604083018562000287565b6200033f6060830184620002de565b9392505050565b7f706d70636f696e00000000000000000000000000000000000000000000000000600082015250565b60006200037e600783620001a2565b91506200038b8262000346565b602082019050919050565b7f504d500000000000000000000000000000000000000000000000000000000000600082015250565b6000620003ce600383620001a2565b9150620003db8262000396565b602082019050919050565b6000819050919050565b6000620004116200040b6200040584620003e6565b620002ac565b620002a2565b9050919050565b6200042381620003f0565b82525050565b6000608082019050818103600083015262000444816200036f565b905081810360208301526200045981620003bf565b90506200046a604083018562000287565b62000479606083018462000418565b9392505050565b61127b80620004906000396000f3fe608060405234801561001057600080fd5b506004361061009e5760003560e01c80636d0923ac116100665780636d0923ac14610123578063778dee8e14610141578063cdb0876f1461014b578063e97f268e14610167578063fa707b82146101855761009e565b80631488ac77146100a35780631f996fce146100c157806326553ced146100cb57806351e9ad78146100e95780635908823f14610107575b600080fd5b6100ab6101a3565b6040516100b89190610cd0565b60405180910390f35b6100c96101c9565b005b6100d36102fa565b6040516100e09190610d84565b60405180910390f35b6100f16103ab565b6040516100fe9190610d84565b60405180910390f35b610121600480360381019061011c9190610de1565b61045c565b005b61012b6105e7565b6040516101389190610cd0565b60405180910390f35b61014961060b565b005b61016560048036038101906101609190610de1565b610740565b005b61016f61081c565b60405161017c9190610e1d565b60405180910390f35b61018d6108c2565b60405161019a9190610e1d565b60405180910390f35b600160009054906101000a900473ffffffffffffffffffffffffffffffffffffffff1681565b60006041905060008054906101000a900473ffffffffffffffffffffffffffffffffffffffff1673ffffffffffffffffffffffffffffffffffffffff16634e6ec2473360008054906101000a900473ffffffffffffffffffffffffffffffffffffffff1673ffffffffffffffffffffffffffffffffffffffff166332424aa36040518163ffffffff1660e01b81526004016020604051808303816000875af1158015610279573d6000803e3d6000fd5b505050506040513d601f19601f8201168201806040525081019061029d9190610e4d565b846102a89190610ea9565b6040518363ffffffff1660e01b81526004016102c5929190610f24565b600060405180830381600087803b1580156102df57600080fd5b505af11580156102f3573d6000803e3d6000fd5b5050505050565b60606000600160009054906101000a900473ffffffffffffffffffffffffffffffffffffffff1673ffffffffffffffffffffffffffffffffffffffff166370a08231336040518263ffffffff1660e01b81526004016103599190610f4d565b602060405180830381865afa158015610376573d6000803e3d6000fd5b505050506040513d601f19601f8201168201806040525081019061039a9190610e4d565b90506103a581610968565b91505090565b60606000600160009054906101000a900473ffffffffffffffffffffffffffffffffffffffff1673ffffffffffffffffffffffffffffffffffffffff166370a08231306040518263ffffffff1660e01b815260040161040a9190610f4d565b602060405180830381865afa158015610427573d6000803e3d6000fd5b505050506040513d601f19601f8201168201806040525081019061044b9190610e4d565b905061045681610968565b91505090565b6000339050600082600a6104709190610ea9565b90506000600160009054906101000a900473ffffffffffffffffffffffffffffffffffffffff1673ffffffffffffffffffffffffffffffffffffffff166332424aa36040518163ffffffff1660e01b81526004016020604051808303816000875af11580156104e3573d6000803e3d6000fd5b505050506040513d601f19601f820116820180604052508101906105079190610e4d565b9050610542600160009054906101000a900473ffffffffffffffffffffffffffffffffffffffff168430848861053d9190610ea9565b610b86565b60008054906101000a900473ffffffffffffffffffffffffffffffffffffffff1673ffffffffffffffffffffffffffffffffffffffff1663a9059cbb84846040518363ffffffff1660e01b815260040161059d929190610f24565b6020604051808303816000875af11580156105bc573d6000803e3d6000fd5b505050506040513d601f19601f820116820180604052508101906105e09190610fa0565b5050505050565b60008054906101000a900473ffffffffffffffffffffffffffffffffffffffff1681565b600060419050600160009054906101000a900473ffffffffffffffffffffffffffffffffffffffff1673ffffffffffffffffffffffffffffffffffffffff16634e6ec24733600160009054906101000a900473ffffffffffffffffffffffffffffffffffffffff1673ffffffffffffffffffffffffffffffffffffffff166332424aa36040518163ffffffff1660e01b81526004016020604051808303816000875af11580156106bf573d6000803e3d6000fd5b505050506040513d601f19601f820116820180604052508101906106e39190610e4d565b846106ee9190610ea9565b6040518363ffffffff1660e01b815260040161070b929190610f24565b600060405180830381600087803b15801561072557600080fd5b505af1158015610739573d6000803e3d6000fd5b5050505050565b6000339050600082905061077660008054906101000a900473ffffffffffffffffffffffffffffffffffffffff16833084610b86565b600160009054906101000a900473ffffffffffffffffffffffffffffffffffffffff1673ffffffffffffffffffffffffffffffffffffffff1663a9059cbb83856040518363ffffffff1660e01b81526004016107d3929190610f24565b6020604051808303816000875af11580156107f2573d6000803e3d6000fd5b505050506040513d601f19601f820116820180604052508101906108169190610fa0565b50505050565b60008060008054906101000a900473ffffffffffffffffffffffffffffffffffffffff1673ffffffffffffffffffffffffffffffffffffffff166370a08231336040518263ffffffff1660e01b81526004016108789190610f4d565b602060405180830381865afa158015610895573d6000803e3d6000fd5b505050506040513d601f19601f820116820180604052508101906108b99190610e4d565b90508091505090565b60008060008054906101000a900473ffffffffffffffffffffffffffffffffffffffff1673ffffffffffffffffffffffffffffffffffffffff166370a08231306040518263ffffffff1660e01b815260040161091e9190610f4d565b602060405180830381865afa15801561093b573d6000803e3d6000fd5b505050506040513d601f19601f8201168201806040525081019061095f9190610e4d565b90508091505090565b606060008214156109b0576040518060400160405280600181526020017f30000000000000000000000000000000000000000000000000000000000000008152509050610b81565b600082905060005b600082146109e25780806109cb90610fcd565b915050600a826109db9190611045565b91506109b8565b60006001826109f19190611076565b67ffffffffffffffff811115610a0a57610a096110cc565b5b6040519080825280601f01601f191660200182016040528015610a3c5781602001600182028036833780820191505090505b5090506000600183610a4e9190611076565b90505b60008614610b7957600181610a6691906110fb565b9050600183610a7591906110fb565b811415610ae4577f2e00000000000000000000000000000000000000000000000000000000000000828281518110610ab057610aaf61112f565b5b60200101907effffffffffffffffffffffffffffffffffffffffffffffffffffffffffffff1916908160001a905350610b74565b6000600a8088610af49190611045565b610afe9190610ea9565b87610b0991906110fb565b6030610b15919061116b565b905060008160f81b905080848481518110610b3357610b3261112f565b5b60200101907effffffffffffffffffffffffffffffffffffffffffffffffffffffffffffff1916908160001a905350600a88610b6f9190611045565b975050505b610a51565b819450505050505b919050565b60008473ffffffffffffffffffffffffffffffffffffffff166323b872dd8585856040518463ffffffff1660e01b8152600401610bc5939291906111a2565b6020604051808303816000875af1158015610be4573d6000803e3d6000fd5b505050506040513d601f19601f82011682018060405250810190610c089190610fa0565b905080610c4a576040517f08c379a0000000000000000000000000000000000000000000000000000000008152600401610c4190611225565b60405180910390fd5b5050505050565b600073ffffffffffffffffffffffffffffffffffffffff82169050919050565b6000819050919050565b6000610c96610c91610c8c84610c51565b610c71565b610c51565b9050919050565b6000610ca882610c7b565b9050919050565b6000610cba82610c9d565b9050919050565b610cca81610caf565b82525050565b6000602082019050610ce56000830184610cc1565b92915050565b600081519050919050565b600082825260208201905092915050565b60005b83811015610d25578082015181840152602081019050610d0a565b83811115610d34576000848401525b50505050565b6000601f19601f8301169050919050565b6000610d5682610ceb565b610d608185610cf6565b9350610d70818560208601610d07565b610d7981610d3a565b840191505092915050565b60006020820190508181036000830152610d9e8184610d4b565b905092915050565b600080fd5b6000819050919050565b610dbe81610dab565b8114610dc957600080fd5b50565b600081359050610ddb81610db5565b92915050565b600060208284031215610df757610df6610da6565b5b6000610e0584828501610dcc565b91505092915050565b610e1781610dab565b82525050565b6000602082019050610e326000830184610e0e565b92915050565b600081519050610e4781610db5565b92915050565b600060208284031215610e6357610e62610da6565b5b6000610e7184828501610e38565b91505092915050565b7f4e487b7100000000000000000000000000000000000000000000000000000000600052601160045260246000fd5b6000610eb482610dab565b9150610ebf83610dab565b9250817fffffffffffffffffffffffffffffffffffffffffffffffffffffffffffffffff0483118215151615610ef857610ef7610e7a565b5b828202905092915050565b6000610f0e82610c51565b9050919050565b610f1e81610f03565b82525050565b6000604082019050610f396000830185610f15565b610f466020830184610e0e565b9392505050565b6000602082019050610f626000830184610f15565b92915050565b60008115159050919050565b610f7d81610f68565b8114610f8857600080fd5b50565b600081519050610f9a81610f74565b92915050565b600060208284031215610fb657610fb5610da6565b5b6000610fc484828501610f8b565b91505092915050565b6000610fd882610dab565b91507fffffffffffffffffffffffffffffffffffffffffffffffffffffffffffffffff82141561100b5761100a610e7a565b5b600182019050919050565b7f4e487b7100000000000000000000000000000000000000000000000000000000600052601260045260246000fd5b600061105082610dab565b915061105b83610dab565b92508261106b5761106a611016565b5b828204905092915050565b600061108182610dab565b915061108c83610dab565b9250827fffffffffffffffffffffffffffffffffffffffffffffffffffffffffffffffff038211156110c1576110c0610e7a565b5b828201905092915050565b7f4e487b7100000000000000000000000000000000000000000000000000000000600052604160045260246000fd5b600061110682610dab565b915061111183610dab565b92508282101561112457611123610e7a565b5b828203905092915050565b7f4e487b7100000000000000000000000000000000000000000000000000000000600052603260045260246000fd5b600060ff82169050919050565b60006111768261115e565b91506111818361115e565b92508260ff0382111561119757611196610e7a565b5b828201905092915050565b60006060820190506111b76000830186610f15565b6111c46020830185610f15565b6111d16040830184610e0e565b949350505050565b7f546f6b656e207472616e73666572206661696c65640000000000000000000000600082015250565b600061120f601583610cf6565b915061121a826111d9565b602082019050919050565b6000602082019050818103600083015261123e81611202565b905091905056fea2646970667358221220d4cef2b2b3519848a2e2b4fd80260d48b7aaad0c3bddd571741a73fcd7c1a0f564736f6c634300080a0033608060405260006002553480156200001657600080fd5b50604051620016cc380380620016cc83398181016040528101906200003c919062000492565b838382826000908051906020019062000057929190620001a5565b50816001908051906020019062000070929190620001a5565b508060028190555050505060006103e89050620000b03362000097620000ea60201b60201c565b83620000a4919062000571565b6200012e60201b60201c565b620000df83620000c5620000ea60201b60201c565b604d620000d3919062000571565b6200012e60201b60201c565b5050505050620006e2565b6000806001905060005b6002548110156200012657600a826200010e919062000571565b915080806200011d90620005d2565b915050620000f4565b508091505090565b806005600082825462000142919062000620565b9250508190555080600360008473ffffffffffffffffffffffffffffffffffffffff1673ffffffffffffffffffffffffffffffffffffffff16815260200190815260200160002060008282546200019a919062000620565b925050819055505050565b828054620001b390620006ac565b90600052602060002090601f016020900481019282620001d7576000855562000223565b82601f10620001f257805160ff191683800117855562000223565b8280016001018555821562000223579182015b828111156200022257825182559160200191906001019062000205565b5b50905062000232919062000236565b5090565b5b808211156200025157600081600090555060010162000237565b5090565b6000604051905090565b600080fd5b600080fd5b600080fd5b600080fd5b6000601f19601f8301169050919050565b7f4e487b7100000000000000000000000000000000000000000000000000000000600052604160045260246000fd5b620002be8262000273565b810181811067ffffffffffffffff82111715620002e057620002df62000284565b5b80604052505050565b6000620002f562000255565b9050620003038282620002b3565b919050565b600067ffffffffffffffff82111562000326576200032562000284565b5b620003318262000273565b9050602081019050919050565b60005b838110156200035e57808201518184015260208101905062000341565b838111156200036e576000848401525b50505050565b60006200038b620003858462000308565b620002e9565b905082815260208101848484011115620003aa57620003a96200026e565b5b620003b78482856200033e565b509392505050565b600082601f830112620003d757620003d662000269565b5b8151620003e984826020860162000374565b91505092915050565b600073ffffffffffffffffffffffffffffffffffffffff82169050919050565b60006200041f82620003f2565b9050919050565b620004318162000412565b81146200043d57600080fd5b50565b600081519050620004518162000426565b92915050565b6000819050919050565b6200046c8162000457565b81146200047857600080fd5b50565b6000815190506200048c8162000461565b92915050565b60008060008060808587031215620004af57620004ae6200025f565b5b600085015167ffffffffffffffff811115620004d057620004cf62000264565b5b620004de87828801620003bf565b945050602085015167ffffffffffffffff81111562000502576200050162000264565b5b6200051087828801620003bf565b9350506040620005238782880162000440565b925050606062000536878288016200047b565b91505092959194509250565b7f4e487b7100000000000000000000000000000000000000000000000000000000600052601160045260246000fd5b60006200057e8262000457565b91506200058b8362000457565b9250817fffffffffffffffffffffffffffffffffffffffffffffffffffffffffffffffff0483118215151615620005c757620005c662000542565b5b828202905092915050565b6000620005df8262000457565b91507fffffffffffffffffffffffffffffffffffffffffffffffffffffffffffffffff82141562000615576200061462000542565b5b600182019050919050565b60006200062d8262000457565b91506200063a8362000457565b9250827fffffffffffffffffffffffffffffffffffffffffffffffffffffffffffffffff0382111562000672576200067162000542565b5b828201905092915050565b7f4e487b7100000000000000000000000000000000000000000000000000000000600052602260045260246000fd5b60006002820490506001821680620006c557607f821691505b60208210811415620006dc57620006db6200067d565b5b50919050565b610fda80620006f26000396000f3fe608060405234801561001057600080fd5b50600436106100a95760003560e01c806332424aa31161007157806332424aa3146101685780634e6ec2471461018657806370a08231146101a257806395d89b41146101d2578063a9059cbb146101f0578063dd62ed3e14610220576100a9565b806306fdde03146100ae578063095ea7b3146100cc57806318160ddd146100fc57806323b872dd1461011a578063313ce5671461014a575b600080fd5b6100b6610250565b6040516100c39190610bcc565b60405180910390f35b6100e660048036038101906100e19190610c87565b6102de565b6040516100f39190610ce2565b60405180910390f35b6101046103d0565b6040516101119190610d0c565b60405180910390f35b610134600480360381019061012f9190610d27565b6103da565b6040516101419190610ce2565b60405180910390f35b610152610745565b60405161015f9190610d0c565b60405180910390f35b61017061074b565b60405161017d9190610d0c565b60405180910390f35b6101a0600480360381019061019b9190610c87565b610789565b005b6101bc60048036038101906101b79190610d7a565b6107fc565b6040516101c99190610d0c565b60405180910390f35b6101da610845565b6040516101e79190610bcc565b60405180910390f35b61020a60048036038101906102059190610c87565b6108d3565b6040516102179190610ce2565b60405180910390f35b61023a60048036038101906102359190610da7565b610aac565b6040516102479190610d0c565b60405180910390f35b6000805461025d90610e16565b80601f016020809104026020016040519081016040528092919081815260200182805461028990610e16565b80156102d65780601f106102ab576101008083540402835291602001916102d6565b820191906000526020600020905b8154815290600101906020018083116102b957829003601f168201915b505050505081565b600081600460003373ffffffffffffffffffffffffffffffffffffffff1673ffffffffffffffffffffffffffffffffffffffff16815260200190815260200160002060008573ffffffffffffffffffffffffffffffffffffffff1673ffffffffffffffffffffffffffffffffffffffff168152602001908152602001600020819055508273ffffffffffffffffffffffffffffffffffffffff163373ffffffffffffffffffffffffffffffffffffffff167f8c5be1e5ebec7d5bd14f71427d1e84f3dd0314c0f7b2291e5b200ac8c7c3b925846040516103be9190610d0c565b60405180910390a36001905092915050565b6000600554905090565b6000600360008573ffffffffffffffffffffffffffffffffffffffff1673ffffffffffffffffffffffffffffffffffffffff1681526020019081526020016000205482111561042857600080fd5b600460008573ffffffffffffffffffffffffffffffffffffffff1673ffffffffffffffffffffffffffffffffffffffff16815260200190815260200160002060003373ffffffffffffffffffffffffffffffffffffffff1673ffffffffffffffffffffffffffffffffffffffff168152602001908152602001600020548211156104b157600080fd5b81600360008673ffffffffffffffffffffffffffffffffffffffff1673ffffffffffffffffffffffffffffffffffffffff168152602001908152602001600020546104fc9190610e77565b600360008673ffffffffffffffffffffffffffffffffffffffff1673ffffffffffffffffffffffffffffffffffffffff1681526020019081526020016000208190555081600460008673ffffffffffffffffffffffffffffffffffffffff1673ffffffffffffffffffffffffffffffffffffffff16815260200190815260200160002060003373ffffffffffffffffffffffffffffffffffffffff1673ffffffffffffffffffffffffffffffffffffffff168152602001908152602001600020546105c79190610e77565b600460008673ffffffffffffffffffffffffffffffffffffffff1673ffffffffffffffffffffffffffffffffffffffff16815260200190815260200160002060003373ffffffffffffffffffffffffffffffffffffffff1673ffffffffffffffffffffffffffffffffffffffff1681526020019081526020016000208190555081600360008573ffffffffffffffffffffffffffffffffffffffff1673ffffffffffffffffffffffffffffffffffffffff168152602001908152602001600020546106929190610eab565b600360008573ffffffffffffffffffffffffffffffffffffffff1673ffffffffffffffffffffffffffffffffffffffff168152602001908152602001600020819055508273ffffffffffffffffffffffffffffffffffffffff168473ffffffffffffffffffffffffffffffffffffffff167fddf252ad1be2c89b69c2b068fc378daa952ba7f163c4a11628f55a4df523b3ef846040516107329190610d0c565b60405180910390a3600190509392505050565b60025481565b6000806001905060005b60025481101561078157600a8261076c9190610f01565b9150808061077990610f5b565b915050610755565b508091505090565b806005600082825461079b9190610eab565b9250508190555080600360008473ffffffffffffffffffffffffffffffffffffffff1673ffffffffffffffffffffffffffffffffffffffff16815260200190815260200160002060008282546107f19190610eab565b925050819055505050565b6000600360008373ffffffffffffffffffffffffffffffffffffffff1673ffffffffffffffffffffffffffffffffffffffff168152602001908152602001600020549050919050565b6001805461085290610e16565b80601f016020809104026020016040519081016040528092919081815260200182805461087e90610e16565b80156108cb5780601f106108a0576101008083540402835291602001916108cb565b820191906000526020600020905b8154815290600101906020018083116108ae57829003601f168201915b505050505081565b6000600360003373ffffffffffffffffffffffffffffffffffffffff1673ffffffffffffffffffffffffffffffffffffffff1681526020019081526020016000205482111561092157600080fd5b81600360003373ffffffffffffffffffffffffffffffffffffffff1673ffffffffffffffffffffffffffffffffffffffff1681526020019081526020016000205461096c9190610e77565b600360003373ffffffffffffffffffffffffffffffffffffffff1673ffffffffffffffffffffffffffffffffffffffff1681526020019081526020016000208190555081600360008573ffffffffffffffffffffffffffffffffffffffff1673ffffffffffffffffffffffffffffffffffffffff168152602001908152602001600020546109fa9190610eab565b600360008573ffffffffffffffffffffffffffffffffffffffff1673ffffffffffffffffffffffffffffffffffffffff168152602001908152602001600020819055508273ffffffffffffffffffffffffffffffffffffffff163373ffffffffffffffffffffffffffffffffffffffff167fddf252ad1be2c89b69c2b068fc378daa952ba7f163c4a11628f55a4df523b3ef84604051610a9a9190610d0c565b60405180910390a36001905092915050565b6000600460008473ffffffffffffffffffffffffffffffffffffffff1673ffffffffffffffffffffffffffffffffffffffff16815260200190815260200160002060008373ffffffffffffffffffffffffffffffffffffffff1673ffffffffffffffffffffffffffffffffffffffff16815260200190815260200160002054905092915050565b600081519050919050565b600082825260208201905092915050565b60005b83811015610b6d578082015181840152602081019050610b52565b83811115610b7c576000848401525b50505050565b6000601f19601f8301169050919050565b6000610b9e82610b33565b610ba88185610b3e565b9350610bb8818560208601610b4f565b610bc181610b82565b840191505092915050565b60006020820190508181036000830152610be68184610b93565b905092915050565b600080fd5b600073ffffffffffffffffffffffffffffffffffffffff82169050919050565b6000610c1e82610bf3565b9050919050565b610c2e81610c13565b8114610c3957600080fd5b50565b600081359050610c4b81610c25565b92915050565b6000819050919050565b610c6481610c51565b8114610c6f57600080fd5b50565b600081359050610c8181610c5b565b92915050565b60008060408385031215610c9e57610c9d610bee565b5b6000610cac85828601610c3c565b9250506020610cbd85828601610c72565b9150509250929050565b60008115159050919050565b610cdc81610cc7565b82525050565b6000602082019050610cf76000830184610cd3565b92915050565b610d0681610c51565b82525050565b6000602082019050610d216000830184610cfd565b92915050565b600080600060608486031215610d4057610d3f610bee565b5b6000610d4e86828701610c3c565b9350506020610d5f86828701610c3c565b9250506040610d7086828701610c72565b9150509250925092565b600060208284031215610d9057610d8f610bee565b5b6000610d9e84828501610c3c565b91505092915050565b60008060408385031215610dbe57610dbd610bee565b5b6000610dcc85828601610c3c565b9250506020610ddd85828601610c3c565b9150509250929050565b7f4e487b7100000000000000000000000000000000000000000000000000000000600052602260045260246000fd5b60006002820490506001821680610e2e57607f821691505b60208210811415610e4257610e41610de7565b5b50919050565b7f4e487b7100000000000000000000000000000000000000000000000000000000600052601160045260246000fd5b6000610e8282610c51565b9150610e8d83610c51565b925082821015610ea057610e9f610e48565b5b828203905092915050565b6000610eb682610c51565b9150610ec183610c51565b9250827fffffffffffffffffffffffffffffffffffffffffffffffffffffffffffffffff03821115610ef657610ef5610e48565b5b828201905092915050565b6000610f0c82610c51565b9150610f1783610c51565b9250817fffffffffffffffffffffffffffffffffffffffffffffffffffffffffffffffff0483118215151615610f5057610f4f610e48565b5b828202905092915050565b6000610f6682610c51565b91507fffffffffffffffffffffffffffffffffffffffffffffffffffffffffffffffff821415610f9957610f98610e48565b5b60018201905091905056fea264697066735822122015b5acfc2bd388d700d092fa161bb453c9abc639e3b273ee400e361204a4e72564736f6c634300080a0033",
  "linkReferences": {},
  "deployedLinkReferences": {}
}