{
  "_format": "hh-sol-artifact-1",
  "contractName": "CryptoExchange",
  "sourceName": "src/backend/contracts/CryptoExchange.sol",
  "abi": [
    {
      "inputs": [],
      "stateMutability": "nonpayable",
      "type": "constructor"
    },
    {
      "inputs": [
        {
          "internalType": "uint256",
          "name": "npnAmt",
          "type": "uint256"
        },
        {
          "internalType": "uint256",
          "name": "pmpAmt",
          "type": "uint256"
        }
      ],
      "name": "NPNtoPMP",
      "outputs": [],
      "stateMutability": "nonpayable",
      "type": "function"
    },
    {
      "inputs": [
        {
          "internalType": "uint256",
          "name": "pmpAmt",
          "type": "uint256"
        },
        {
          "internalType": "uint256",
          "name": "npnAmt",
          "type": "uint256"
        }
      ],
      "name": "PMPtoNPN",
      "outputs": [],
      "stateMutability": "nonpayable",
      "type": "function"
    },
    {
      "inputs": [],
      "name": "airdropNPNToken",
      "outputs": [],
      "stateMutability": "nonpayable",
      "type": "function"
    },
    {
      "inputs": [],
      "name": "airdropPMPToken",
      "outputs": [],
      "stateMutability": "nonpayable",
      "type": "function"
    },
    {
      "inputs": [],
      "name": "showAvlNPN",
      "outputs": [
        {
          "internalType": "string",
          "name": "",
          "type": "string"
        }
      ],
      "stateMutability": "view",
      "type": "function"
    },
    {
      "inputs": [],
      "name": "showAvlPMP",
      "outputs": [
        {
          "internalType": "string",
          "name": "",
          "type": "string"
        }
      ],
      "stateMutability": "view",
      "type": "function"
    },
    {
      "inputs": [],
      "name": "showUsrNPN",
      "outputs": [
        {
          "internalType": "string",
          "name": "",
          "type": "string"
        }
      ],
      "stateMutability": "view",
      "type": "function"
    },
    {
      "inputs": [],
      "name": "showUsrPMP",
      "outputs": [
        {
          "internalType": "string",
          "name": "",
          "type": "string"
        }
      ],
      "stateMutability": "view",
      "type": "function"
    },
    {
      "inputs": [],
      "name": "tokenNPN",
      "outputs": [
        {
          "internalType": "contract IERC20",
          "name": "",
          "type": "address"
        }
      ],
      "stateMutability": "view",
      "type": "function"
    },
    {
      "inputs": [],
      "name": "tokenPMP",
      "outputs": [
        {
          "internalType": "contract IERC20",
          "name": "",
          "type": "address"
        }
      ],
      "stateMutability": "view",
      "type": "function"
    }
  ],
  "bytecode": "0x60806040523480156200001157600080fd5b5033600260006101000a81548173ffffffffffffffffffffffffffffffffffffffff021916908373ffffffffffffffffffffffffffffffffffffffff160217905550600260009054906101000a900473ffffffffffffffffffffffffffffffffffffffff16600e604051620000869062000194565b62000093929190620002ef565b604051809103906000f080158015620000b0573d6000803e3d6000fd5b506000806101000a81548173ffffffffffffffffffffffffffffffffffffffff021916908373ffffffffffffffffffffffffffffffffffffffff160217905550600260009054906101000a900473ffffffffffffffffffffffffffffffffffffffff16600e604051620001239062000194565b62000130929190620003e6565b604051809103906000f0801580156200014d573d6000803e3d6000fd5b50600160006101000a81548173ffffffffffffffffffffffffffffffffffffffff021916908373ffffffffffffffffffffffffffffffffffffffff1602179055506200043d565b6116d280620015fc83390190565b600082825260208201905092915050565b7f6e6170636f696e00000000000000000000000000000000000000000000000000600082015250565b6000620001eb600783620001a2565b9150620001f882620001b3565b602082019050919050565b7f4e504e0000000000000000000000000000000000000000000000000000000000600082015250565b60006200023b600383620001a2565b9150620002488262000203565b602082019050919050565b600073ffffffffffffffffffffffffffffffffffffffff82169050919050565b6000620002808262000253565b9050919050565b620002928162000273565b82525050565b6000819050919050565b6000819050919050565b6000819050919050565b6000620002d7620002d1620002cb8462000298565b620002ac565b620002a2565b9050919050565b620002e981620002b6565b82525050565b600060808201905081810360008301526200030a81620001dc565b905081810360208301526200031f816200022c565b905062000330604083018562000287565b6200033f6060830184620002de565b9392505050565b7f706d70636f696e00000000000000000000000000000000000000000000000000600082015250565b60006200037e600783620001a2565b91506200038b8262000346565b602082019050919050565b7f504d500000000000000000000000000000000000000000000000000000000000600082015250565b6000620003ce600383620001a2565b9150620003db8262000396565b602082019050919050565b6000608082019050818103600083015262000401816200036f565b905081810360208301526200041681620003bf565b905062000427604083018562000287565b620004366060830184620002de565b9392505050565b6111af806200044d6000396000f3fe608060405234801561001057600080fd5b506004361061009e5760003560e01c80636d0923ac116100665780636d0923ac14610123578063778dee8e1461014157806378e81e741461014b578063e97f268e14610167578063fa707b82146101855761009e565b80631488ac77146100a35780631f996fce146100c157806326553ced146100cb57806351e9ad78146100e95780636cb4252d14610107575b600080fd5b6100ab6101a3565b6040516100b89190610c62565b60405180910390f35b6100c96101c9565b005b6100d361031c565b6040516100e09190610d16565b60405180910390f35b6100f16103ef565b6040516100fe9190610d16565b60405180910390f35b610121600480360381019061011c9190610d73565b6104a0565b005b61012b610599565b6040516101389190610c62565b60405180910390f35b6101496105bd565b005b61016560048036038101906101609190610d73565b610714565b005b61016f61080d565b60405161017c9190610d16565b60405180910390f35b61018d6108df565b60405161019a9190610d16565b60405180910390f35b600160009054906101000a900473ffffffffffffffffffffffffffffffffffffffff1681565b60006041905060008054906101000a900473ffffffffffffffffffffffffffffffffffffffff1673ffffffffffffffffffffffffffffffffffffffff16634e6ec247600260009054906101000a900473ffffffffffffffffffffffffffffffffffffffff1660008054906101000a900473ffffffffffffffffffffffffffffffffffffffff1673ffffffffffffffffffffffffffffffffffffffff166332424aa36040518163ffffffff1660e01b81526004016020604051808303816000875af115801561029b573d6000803e3d6000fd5b505050506040513d601f19601f820116820180604052508101906102bf9190610dc8565b846102ca9190610e24565b6040518363ffffffff1660e01b81526004016102e7929190610eae565b600060405180830381600087803b15801561030157600080fd5b505af1158015610315573d6000803e3d6000fd5b5050505050565b60606000600160009054906101000a900473ffffffffffffffffffffffffffffffffffffffff1673ffffffffffffffffffffffffffffffffffffffff166370a08231600260009054906101000a900473ffffffffffffffffffffffffffffffffffffffff166040518263ffffffff1660e01b815260040161039d9190610ed7565b602060405180830381865afa1580156103ba573d6000803e3d6000fd5b505050506040513d601f19601f820116820180604052508101906103de9190610dc8565b90506103e98161098f565b91505090565b60606000600160009054906101000a900473ffffffffffffffffffffffffffffffffffffffff1673ffffffffffffffffffffffffffffffffffffffff166370a08231306040518263ffffffff1660e01b815260040161044e9190610ed7565b602060405180830381865afa15801561046b573d6000803e3d6000fd5b505050506040513d601f19601f8201168201806040525081019061048f9190610dc8565b905061049a8161098f565b91505090565b6000600260009054906101000a900473ffffffffffffffffffffffffffffffffffffffff1690506104f360008054906101000a900473ffffffffffffffffffffffffffffffffffffffff16823086610b18565b600160009054906101000a900473ffffffffffffffffffffffffffffffffffffffff1673ffffffffffffffffffffffffffffffffffffffff1663a9059cbb82846040518363ffffffff1660e01b8152600401610550929190610eae565b6020604051808303816000875af115801561056f573d6000803e3d6000fd5b505050506040513d601f19601f820116820180604052508101906105939190610f2a565b50505050565b60008054906101000a900473ffffffffffffffffffffffffffffffffffffffff1681565b600060419050600160009054906101000a900473ffffffffffffffffffffffffffffffffffffffff1673ffffffffffffffffffffffffffffffffffffffff16634e6ec247600260009054906101000a900473ffffffffffffffffffffffffffffffffffffffff16600160009054906101000a900473ffffffffffffffffffffffffffffffffffffffff1673ffffffffffffffffffffffffffffffffffffffff166332424aa36040518163ffffffff1660e01b81526004016020604051808303816000875af1158015610693573d6000803e3d6000fd5b505050506040513d601f19601f820116820180604052508101906106b79190610dc8565b846106c29190610e24565b6040518363ffffffff1660e01b81526004016106df929190610eae565b600060405180830381600087803b1580156106f957600080fd5b505af115801561070d573d6000803e3d6000fd5b5050505050565b6000600260009054906101000a900473ffffffffffffffffffffffffffffffffffffffff169050610769600160009054906101000a900473ffffffffffffffffffffffffffffffffffffffff16823086610b18565b60008054906101000a900473ffffffffffffffffffffffffffffffffffffffff1673ffffffffffffffffffffffffffffffffffffffff1663a9059cbb82846040518363ffffffff1660e01b81526004016107c4929190610eae565b6020604051808303816000875af11580156107e3573d6000803e3d6000fd5b505050506040513d601f19601f820116820180604052508101906108079190610f2a565b50505050565b606060008060009054906101000a900473ffffffffffffffffffffffffffffffffffffffff1673ffffffffffffffffffffffffffffffffffffffff166370a08231600260009054906101000a900473ffffffffffffffffffffffffffffffffffffffff166040518263ffffffff1660e01b815260040161088d9190610ed7565b602060405180830381865afa1580156108aa573d6000803e3d6000fd5b505050506040513d601f19601f820116820180604052508101906108ce9190610dc8565b90506108d98161098f565b91505090565b606060008060009054906101000a900473ffffffffffffffffffffffffffffffffffffffff1673ffffffffffffffffffffffffffffffffffffffff166370a08231306040518263ffffffff1660e01b815260040161093d9190610ed7565b602060405180830381865afa15801561095a573d6000803e3d6000fd5b505050506040513d601f19601f8201168201806040525081019061097e9190610dc8565b90506109898161098f565b91505090565b606060008214156109d7576040518060400160405280600181526020017f30000000000000000000000000000000000000000000000000000000000000008152509050610b13565b600082905060005b60008214610a095780806109f290610f57565b915050600a82610a029190610fcf565b91506109df565b60008167ffffffffffffffff811115610a2557610a24611000565b5b6040519080825280601f01601f191660200182016040528015610a575781602001600182028036833780820191505090505b50905060008290505b60008614610b0b57600181610a75919061102f565b90506000600a8088610a879190610fcf565b610a919190610e24565b87610a9c919061102f565b6030610aa89190611070565b905060008160f81b905080848481518110610ac657610ac56110a7565b5b60200101907effffffffffffffffffffffffffffffffffffffffffffffffffffffffffffff1916908160001a905350600a88610b029190610fcf565b97505050610a60565b819450505050505b919050565b60008473ffffffffffffffffffffffffffffffffffffffff166323b872dd8585856040518463ffffffff1660e01b8152600401610b57939291906110d6565b6020604051808303816000875af1158015610b76573d6000803e3d6000fd5b505050506040513d601f19601f82011682018060405250810190610b9a9190610f2a565b905080610bdc576040517f08c379a0000000000000000000000000000000000000000000000000000000008152600401610bd390611159565b60405180910390fd5b5050505050565b600073ffffffffffffffffffffffffffffffffffffffff82169050919050565b6000819050919050565b6000610c28610c23610c1e84610be3565b610c03565b610be3565b9050919050565b6000610c3a82610c0d565b9050919050565b6000610c4c82610c2f565b9050919050565b610c5c81610c41565b82525050565b6000602082019050610c776000830184610c53565b92915050565b600081519050919050565b600082825260208201905092915050565b60005b83811015610cb7578082015181840152602081019050610c9c565b83811115610cc6576000848401525b50505050565b6000601f19601f8301169050919050565b6000610ce882610c7d565b610cf28185610c88565b9350610d02818560208601610c99565b610d0b81610ccc565b840191505092915050565b60006020820190508181036000830152610d308184610cdd565b905092915050565b600080fd5b6000819050919050565b610d5081610d3d565b8114610d5b57600080fd5b50565b600081359050610d6d81610d47565b92915050565b60008060408385031215610d8a57610d89610d38565b5b6000610d9885828601610d5e565b9250506020610da985828601610d5e565b9150509250929050565b600081519050610dc281610d47565b92915050565b600060208284031215610dde57610ddd610d38565b5b6000610dec84828501610db3565b91505092915050565b7f4e487b7100000000000000000000000000000000000000000000000000000000600052601160045260246000fd5b6000610e2f82610d3d565b9150610e3a83610d3d565b9250817fffffffffffffffffffffffffffffffffffffffffffffffffffffffffffffffff0483118215151615610e7357610e72610df5565b5b828202905092915050565b6000610e8982610be3565b9050919050565b610e9981610e7e565b82525050565b610ea881610d3d565b82525050565b6000604082019050610ec36000830185610e90565b610ed06020830184610e9f565b9392505050565b6000602082019050610eec6000830184610e90565b92915050565b60008115159050919050565b610f0781610ef2565b8114610f1257600080fd5b50565b600081519050610f2481610efe565b92915050565b600060208284031215610f4057610f3f610d38565b5b6000610f4e84828501610f15565b91505092915050565b6000610f6282610d3d565b91507fffffffffffffffffffffffffffffffffffffffffffffffffffffffffffffffff821415610f9557610f94610df5565b5b600182019050919050565b7f4e487b7100000000000000000000000000000000000000000000000000000000600052601260045260246000fd5b6000610fda82610d3d565b9150610fe583610d3d565b925082610ff557610ff4610fa0565b5b828204905092915050565b7f4e487b7100000000000000000000000000000000000000000000000000000000600052604160045260246000fd5b600061103a82610d3d565b915061104583610d3d565b92508282101561105857611057610df5565b5b828203905092915050565b600060ff82169050919050565b600061107b82611063565b915061108683611063565b92508260ff0382111561109c5761109b610df5565b5b828201905092915050565b7f4e487b7100000000000000000000000000000000000000000000000000000000600052603260045260246000fd5b60006060820190506110eb6000830186610e90565b6110f86020830185610e90565b6111056040830184610e9f565b949350505050565b7f546f6b656e207472616e73666572206661696c65640000000000000000000000600082015250565b6000611143601583610c88565b915061114e8261110d565b602082019050919050565b6000602082019050818103600083015261117281611136565b905091905056fea2646970667358221220ed29ef821b0429a415d145f4c66b1d4988f9dbf258cb3c8adbc12ef735b6d4df64736f6c634300080a0033608060405260006002553480156200001657600080fd5b50604051620016d2380380620016d283398181016040528101906200003c919062000498565b838382826000908051906020019062000057929190620001ab565b50816001908051906020019062000070929190620001ab565b508060028190555050505060006103e890506000604d9050620000b6336200009d620000f060201b60201c565b84620000aa919062000577565b6200013460201b60201c565b620000e484620000cb620000f060201b60201c565b83620000d8919062000577565b6200013460201b60201c565b505050505050620006e8565b6000806001905060005b6002548110156200012c57600a8262000114919062000577565b915080806200012390620005d8565b915050620000fa565b508091505090565b806005600082825462000148919062000626565b9250508190555080600360008473ffffffffffffffffffffffffffffffffffffffff1673ffffffffffffffffffffffffffffffffffffffff1681526020019081526020016000206000828254620001a0919062000626565b925050819055505050565b828054620001b990620006b2565b90600052602060002090601f016020900481019282620001dd576000855562000229565b82601f10620001f857805160ff191683800117855562000229565b8280016001018555821562000229579182015b82811115620002285782518255916020019190600101906200020b565b5b5090506200023891906200023c565b5090565b5b80821115620002575760008160009055506001016200023d565b5090565b6000604051905090565b600080fd5b600080fd5b600080fd5b600080fd5b6000601f19601f8301169050919050565b7f4e487b7100000000000000000000000000000000000000000000000000000000600052604160045260246000fd5b620002c48262000279565b810181811067ffffffffffffffff82111715620002e657620002e56200028a565b5b80604052505050565b6000620002fb6200025b565b9050620003098282620002b9565b919050565b600067ffffffffffffffff8211156200032c576200032b6200028a565b5b620003378262000279565b9050602081019050919050565b60005b838110156200036457808201518184015260208101905062000347565b8381111562000374576000848401525b50505050565b6000620003916200038b846200030e565b620002ef565b905082815260208101848484011115620003b057620003af62000274565b5b620003bd84828562000344565b509392505050565b600082601f830112620003dd57620003dc6200026f565b5b8151620003ef8482602086016200037a565b91505092915050565b600073ffffffffffffffffffffffffffffffffffffffff82169050919050565b60006200042582620003f8565b9050919050565b620004378162000418565b81146200044357600080fd5b50565b60008151905062000457816200042c565b92915050565b6000819050919050565b62000472816200045d565b81146200047e57600080fd5b50565b600081519050620004928162000467565b92915050565b60008060008060808587031215620004b557620004b462000265565b5b600085015167ffffffffffffffff811115620004d657620004d56200026a565b5b620004e487828801620003c5565b945050602085015167ffffffffffffffff8111156200050857620005076200026a565b5b6200051687828801620003c5565b9350506040620005298782880162000446565b92505060606200053c8782880162000481565b91505092959194509250565b7f4e487b7100000000000000000000000000000000000000000000000000000000600052601160045260246000fd5b600062000584826200045d565b915062000591836200045d565b9250817fffffffffffffffffffffffffffffffffffffffffffffffffffffffffffffffff0483118215151615620005cd57620005cc62000548565b5b828202905092915050565b6000620005e5826200045d565b91507fffffffffffffffffffffffffffffffffffffffffffffffffffffffffffffffff8214156200061b576200061a62000548565b5b600182019050919050565b600062000633826200045d565b915062000640836200045d565b9250827fffffffffffffffffffffffffffffffffffffffffffffffffffffffffffffffff0382111562000678576200067762000548565b5b828201905092915050565b7f4e487b7100000000000000000000000000000000000000000000000000000000600052602260045260246000fd5b60006002820490506001821680620006cb57607f821691505b60208210811415620006e257620006e162000683565b5b50919050565b610fda80620006f86000396000f3fe608060405234801561001057600080fd5b50600436106100a95760003560e01c806332424aa31161007157806332424aa3146101685780634e6ec2471461018657806370a08231146101a257806395d89b41146101d2578063a9059cbb146101f0578063dd62ed3e14610220576100a9565b806306fdde03146100ae578063095ea7b3146100cc57806318160ddd146100fc57806323b872dd1461011a578063313ce5671461014a575b600080fd5b6100b6610250565b6040516100c39190610bcc565b60405180910390f35b6100e660048036038101906100e19190610c87565b6102de565b6040516100f39190610ce2565b60405180910390f35b6101046103d0565b6040516101119190610d0c565b60405180910390f35b610134600480360381019061012f9190610d27565b6103da565b6040516101419190610ce2565b60405180910390f35b610152610745565b60405161015f9190610d0c565b60405180910390f35b61017061074b565b60405161017d9190610d0c565b60405180910390f35b6101a0600480360381019061019b9190610c87565b610789565b005b6101bc60048036038101906101b79190610d7a565b6107fc565b6040516101c99190610d0c565b60405180910390f35b6101da610845565b6040516101e79190610bcc565b60405180910390f35b61020a60048036038101906102059190610c87565b6108d3565b6040516102179190610ce2565b60405180910390f35b61023a60048036038101906102359190610da7565b610aac565b6040516102479190610d0c565b60405180910390f35b6000805461025d90610e16565b80601f016020809104026020016040519081016040528092919081815260200182805461028990610e16565b80156102d65780601f106102ab576101008083540402835291602001916102d6565b820191906000526020600020905b8154815290600101906020018083116102b957829003601f168201915b505050505081565b600081600460003373ffffffffffffffffffffffffffffffffffffffff1673ffffffffffffffffffffffffffffffffffffffff16815260200190815260200160002060008573ffffffffffffffffffffffffffffffffffffffff1673ffffffffffffffffffffffffffffffffffffffff168152602001908152602001600020819055508273ffffffffffffffffffffffffffffffffffffffff163373ffffffffffffffffffffffffffffffffffffffff167f8c5be1e5ebec7d5bd14f71427d1e84f3dd0314c0f7b2291e5b200ac8c7c3b925846040516103be9190610d0c565b60405180910390a36001905092915050565b6000600554905090565b6000600360008573ffffffffffffffffffffffffffffffffffffffff1673ffffffffffffffffffffffffffffffffffffffff1681526020019081526020016000205482111561042857600080fd5b600460008573ffffffffffffffffffffffffffffffffffffffff1673ffffffffffffffffffffffffffffffffffffffff16815260200190815260200160002060003373ffffffffffffffffffffffffffffffffffffffff1673ffffffffffffffffffffffffffffffffffffffff168152602001908152602001600020548211156104b157600080fd5b81600360008673ffffffffffffffffffffffffffffffffffffffff1673ffffffffffffffffffffffffffffffffffffffff168152602001908152602001600020546104fc9190610e77565b600360008673ffffffffffffffffffffffffffffffffffffffff1673ffffffffffffffffffffffffffffffffffffffff1681526020019081526020016000208190555081600460008673ffffffffffffffffffffffffffffffffffffffff1673ffffffffffffffffffffffffffffffffffffffff16815260200190815260200160002060003373ffffffffffffffffffffffffffffffffffffffff1673ffffffffffffffffffffffffffffffffffffffff168152602001908152602001600020546105c79190610e77565b600460008673ffffffffffffffffffffffffffffffffffffffff1673ffffffffffffffffffffffffffffffffffffffff16815260200190815260200160002060003373ffffffffffffffffffffffffffffffffffffffff1673ffffffffffffffffffffffffffffffffffffffff1681526020019081526020016000208190555081600360008573ffffffffffffffffffffffffffffffffffffffff1673ffffffffffffffffffffffffffffffffffffffff168152602001908152602001600020546106929190610eab565b600360008573ffffffffffffffffffffffffffffffffffffffff1673ffffffffffffffffffffffffffffffffffffffff168152602001908152602001600020819055508273ffffffffffffffffffffffffffffffffffffffff168473ffffffffffffffffffffffffffffffffffffffff167fddf252ad1be2c89b69c2b068fc378daa952ba7f163c4a11628f55a4df523b3ef846040516107329190610d0c565b60405180910390a3600190509392505050565b60025481565b6000806001905060005b60025481101561078157600a8261076c9190610f01565b9150808061077990610f5b565b915050610755565b508091505090565b806005600082825461079b9190610eab565b9250508190555080600360008473ffffffffffffffffffffffffffffffffffffffff1673ffffffffffffffffffffffffffffffffffffffff16815260200190815260200160002060008282546107f19190610eab565b925050819055505050565b6000600360008373ffffffffffffffffffffffffffffffffffffffff1673ffffffffffffffffffffffffffffffffffffffff168152602001908152602001600020549050919050565b6001805461085290610e16565b80601f016020809104026020016040519081016040528092919081815260200182805461087e90610e16565b80156108cb5780601f106108a0576101008083540402835291602001916108cb565b820191906000526020600020905b8154815290600101906020018083116108ae57829003601f168201915b505050505081565b6000600360003373ffffffffffffffffffffffffffffffffffffffff1673ffffffffffffffffffffffffffffffffffffffff1681526020019081526020016000205482111561092157600080fd5b81600360003373ffffffffffffffffffffffffffffffffffffffff1673ffffffffffffffffffffffffffffffffffffffff1681526020019081526020016000205461096c9190610e77565b600360003373ffffffffffffffffffffffffffffffffffffffff1673ffffffffffffffffffffffffffffffffffffffff1681526020019081526020016000208190555081600360008573ffffffffffffffffffffffffffffffffffffffff1673ffffffffffffffffffffffffffffffffffffffff168152602001908152602001600020546109fa9190610eab565b600360008573ffffffffffffffffffffffffffffffffffffffff1673ffffffffffffffffffffffffffffffffffffffff168152602001908152602001600020819055508273ffffffffffffffffffffffffffffffffffffffff163373ffffffffffffffffffffffffffffffffffffffff167fddf252ad1be2c89b69c2b068fc378daa952ba7f163c4a11628f55a4df523b3ef84604051610a9a9190610d0c565b60405180910390a36001905092915050565b6000600460008473ffffffffffffffffffffffffffffffffffffffff1673ffffffffffffffffffffffffffffffffffffffff16815260200190815260200160002060008373ffffffffffffffffffffffffffffffffffffffff1673ffffffffffffffffffffffffffffffffffffffff16815260200190815260200160002054905092915050565b600081519050919050565b600082825260208201905092915050565b60005b83811015610b6d578082015181840152602081019050610b52565b83811115610b7c576000848401525b50505050565b6000601f19601f8301169050919050565b6000610b9e82610b33565b610ba88185610b3e565b9350610bb8818560208601610b4f565b610bc181610b82565b840191505092915050565b60006020820190508181036000830152610be68184610b93565b905092915050565b600080fd5b600073ffffffffffffffffffffffffffffffffffffffff82169050919050565b6000610c1e82610bf3565b9050919050565b610c2e81610c13565b8114610c3957600080fd5b50565b600081359050610c4b81610c25565b92915050565b6000819050919050565b610c6481610c51565b8114610c6f57600080fd5b50565b600081359050610c8181610c5b565b92915050565b60008060408385031215610c9e57610c9d610bee565b5b6000610cac85828601610c3c565b9250506020610cbd85828601610c72565b9150509250929050565b60008115159050919050565b610cdc81610cc7565b82525050565b6000602082019050610cf76000830184610cd3565b92915050565b610d0681610c51565b82525050565b6000602082019050610d216000830184610cfd565b92915050565b600080600060608486031215610d4057610d3f610bee565b5b6000610d4e86828701610c3c565b9350506020610d5f86828701610c3c565b9250506040610d7086828701610c72565b9150509250925092565b600060208284031215610d9057610d8f610bee565b5b6000610d9e84828501610c3c565b91505092915050565b60008060408385031215610dbe57610dbd610bee565b5b6000610dcc85828601610c3c565b9250506020610ddd85828601610c3c565b9150509250929050565b7f4e487b7100000000000000000000000000000000000000000000000000000000600052602260045260246000fd5b60006002820490506001821680610e2e57607f821691505b60208210811415610e4257610e41610de7565b5b50919050565b7f4e487b7100000000000000000000000000000000000000000000000000000000600052601160045260246000fd5b6000610e8282610c51565b9150610e8d83610c51565b925082821015610ea057610e9f610e48565b5b828203905092915050565b6000610eb682610c51565b9150610ec183610c51565b9250827fffffffffffffffffffffffffffffffffffffffffffffffffffffffffffffffff03821115610ef657610ef5610e48565b5b828201905092915050565b6000610f0c82610c51565b9150610f1783610c51565b9250817fffffffffffffffffffffffffffffffffffffffffffffffffffffffffffffffff0483118215151615610f5057610f4f610e48565b5b828202905092915050565b6000610f6682610c51565b91507fffffffffffffffffffffffffffffffffffffffffffffffffffffffffffffffff821415610f9957610f98610e48565b5b60018201905091905056fea2646970667358221220672feea13876cfcc6746693a1717099ebfb696441c348f9dbfaf857451938a6a64736f6c634300080a0033",
  "linkReferences": {},
  "deployedLinkReferences": {}
}