{
  "_format": "hh-sol-artifact-1",
  "contractName": "CryptoExchange",
  "sourceName": "src/backend/contracts/CryptoExchange.sol",
  "abi": [
    {
      "inputs": [],
      "stateMutability": "nonpayable",
      "type": "constructor"
    },
    {
      "inputs": [
        {
          "internalType": "uint256",
          "name": "npnAmt",
          "type": "uint256"
        }
      ],
      "name": "NPNtoPMP",
      "outputs": [],
      "stateMutability": "nonpayable",
      "type": "function"
    },
    {
      "inputs": [
        {
          "internalType": "uint256",
          "name": "pmpAmt",
          "type": "uint256"
        }
      ],
      "name": "PMPtoNPN",
      "outputs": [],
      "stateMutability": "nonpayable",
      "type": "function"
    },
    {
      "inputs": [],
      "name": "airdropNPNToken",
      "outputs": [],
      "stateMutability": "nonpayable",
      "type": "function"
    },
    {
      "inputs": [],
      "name": "airdropPMPToken",
      "outputs": [],
      "stateMutability": "nonpayable",
      "type": "function"
    },
    {
      "inputs": [],
      "name": "showAvlNPN",
      "outputs": [
        {
          "internalType": "uint256",
          "name": "",
          "type": "uint256"
        }
      ],
      "stateMutability": "view",
      "type": "function"
    },
    {
      "inputs": [],
      "name": "showAvlPMP",
      "outputs": [
        {
          "internalType": "string",
          "name": "",
          "type": "string"
        }
      ],
      "stateMutability": "view",
      "type": "function"
    },
    {
      "inputs": [],
      "name": "showUsrNPN",
      "outputs": [
        {
          "internalType": "uint256",
          "name": "",
          "type": "uint256"
        }
      ],
      "stateMutability": "view",
      "type": "function"
    },
    {
      "inputs": [],
      "name": "showUsrPMP",
      "outputs": [
        {
          "internalType": "string",
          "name": "",
          "type": "string"
        }
      ],
      "stateMutability": "view",
      "type": "function"
    },
    {
      "inputs": [],
      "name": "tokenNPN",
      "outputs": [
        {
          "internalType": "contract IERC20",
          "name": "",
          "type": "address"
        }
      ],
      "stateMutability": "view",
      "type": "function"
    },
    {
      "inputs": [],
      "name": "tokenPMP",
      "outputs": [
        {
          "internalType": "contract IERC20",
          "name": "",
          "type": "address"
        }
      ],
      "stateMutability": "view",
      "type": "function"
    }
  ],
  "bytecode": "0x60806040523480156200001157600080fd5b5033600260006101000a81548173ffffffffffffffffffffffffffffffffffffffff021916908373ffffffffffffffffffffffffffffffffffffffff160217905550600260009054906101000a900473ffffffffffffffffffffffffffffffffffffffff166000604051620000869062000194565b62000093929190620002ef565b604051809103906000f080158015620000b0573d6000803e3d6000fd5b506000806101000a81548173ffffffffffffffffffffffffffffffffffffffff021916908373ffffffffffffffffffffffffffffffffffffffff160217905550600260009054906101000a900473ffffffffffffffffffffffffffffffffffffffff166001604051620001239062000194565b6200013092919062000429565b604051809103906000f0801580156200014d573d6000803e3d6000fd5b50600160006101000a81548173ffffffffffffffffffffffffffffffffffffffff021916908373ffffffffffffffffffffffffffffffffffffffff16021790555062000480565b6117fa806200185a83390190565b600082825260208201905092915050565b7f6e6170636f696e00000000000000000000000000000000000000000000000000600082015250565b6000620001eb600783620001a2565b9150620001f882620001b3565b602082019050919050565b7f4e504e0000000000000000000000000000000000000000000000000000000000600082015250565b60006200023b600383620001a2565b9150620002488262000203565b602082019050919050565b600073ffffffffffffffffffffffffffffffffffffffff82169050919050565b6000620002808262000253565b9050919050565b620002928162000273565b82525050565b6000819050919050565b6000819050919050565b6000819050919050565b6000620002d7620002d1620002cb8462000298565b620002ac565b620002a2565b9050919050565b620002e981620002b6565b82525050565b600060808201905081810360008301526200030a81620001dc565b905081810360208301526200031f816200022c565b905062000330604083018562000287565b6200033f6060830184620002de565b9392505050565b7f706d70636f696e00000000000000000000000000000000000000000000000000600082015250565b60006200037e600783620001a2565b91506200038b8262000346565b602082019050919050565b7f504d500000000000000000000000000000000000000000000000000000000000600082015250565b6000620003ce600383620001a2565b9150620003db8262000396565b602082019050919050565b6000819050919050565b6000620004116200040b6200040584620003e6565b620002ac565b620002a2565b9050919050565b6200042381620003f0565b82525050565b6000608082019050818103600083015262000444816200036f565b905081810360208301526200045981620003bf565b90506200046a604083018562000287565b62000479606083018462000418565b9392505050565b6113ca80620004906000396000f3fe608060405234801561001057600080fd5b506004361061009e5760003560e01c80636d0923ac116100665780636d0923ac14610123578063778dee8e14610141578063cdb0876f1461014b578063e97f268e14610167578063fa707b82146101855761009e565b80631488ac77146100a35780631f996fce146100c157806326553ced146100cb57806351e9ad78146100e95780635908823f14610107575b600080fd5b6100ab6101a3565b6040516100b89190610e1f565b60405180910390f35b6100c96101c9565b005b6100d36102fa565b6040516100e09190610ed3565b60405180910390f35b6100f16103ab565b6040516100fe9190610ed3565b60405180910390f35b610121600480360381019061011c9190610f30565b61045c565b005b61012b610695565b6040516101389190610e1f565b60405180910390f35b6101496106b9565b005b61016560048036038101906101609190610f30565b6107ee565b005b61016f61096b565b60405161017c9190610f6c565b60405180910390f35b61018d610a11565b60405161019a9190610f6c565b60405180910390f35b600160009054906101000a900473ffffffffffffffffffffffffffffffffffffffff1681565b60006041905060008054906101000a900473ffffffffffffffffffffffffffffffffffffffff1673ffffffffffffffffffffffffffffffffffffffff16634e6ec2473360008054906101000a900473ffffffffffffffffffffffffffffffffffffffff1673ffffffffffffffffffffffffffffffffffffffff166332424aa36040518163ffffffff1660e01b81526004016020604051808303816000875af1158015610279573d6000803e3d6000fd5b505050506040513d601f19601f8201168201806040525081019061029d9190610f9c565b846102a89190610ff8565b6040518363ffffffff1660e01b81526004016102c5929190611073565b600060405180830381600087803b1580156102df57600080fd5b505af11580156102f3573d6000803e3d6000fd5b5050505050565b60606000600160009054906101000a900473ffffffffffffffffffffffffffffffffffffffff1673ffffffffffffffffffffffffffffffffffffffff166370a08231336040518263ffffffff1660e01b8152600401610359919061109c565b602060405180830381865afa158015610376573d6000803e3d6000fd5b505050506040513d601f19601f8201168201806040525081019061039a9190610f9c565b90506103a581610ab7565b91505090565b60606000600160009054906101000a900473ffffffffffffffffffffffffffffffffffffffff1673ffffffffffffffffffffffffffffffffffffffff166370a08231306040518263ffffffff1660e01b815260040161040a919061109c565b602060405180830381865afa158015610427573d6000803e3d6000fd5b505050506040513d601f19601f8201168201806040525081019061044b9190610f9c565b905061045681610ab7565b91505090565b6000339050600082600a6104709190610ff8565b90506000600160009054906101000a900473ffffffffffffffffffffffffffffffffffffffff1673ffffffffffffffffffffffffffffffffffffffff166332424aa36040518163ffffffff1660e01b81526004016020604051808303816000875af11580156104e3573d6000803e3d6000fd5b505050506040513d601f19601f820116820180604052508101906105079190610f9c565b9050600160009054906101000a900473ffffffffffffffffffffffffffffffffffffffff1673ffffffffffffffffffffffffffffffffffffffff1663e1f21c67843084886105559190610ff8565b6040518463ffffffff1660e01b8152600401610573939291906110b7565b6020604051808303816000875af1158015610592573d6000803e3d6000fd5b505050506040513d601f19601f820116820180604052508101906105b69190611126565b506105f0600160009054906101000a900473ffffffffffffffffffffffffffffffffffffffff16843084886105eb9190610ff8565b610cd5565b60008054906101000a900473ffffffffffffffffffffffffffffffffffffffff1673ffffffffffffffffffffffffffffffffffffffff1663a9059cbb84846040518363ffffffff1660e01b815260040161064b929190611073565b6020604051808303816000875af115801561066a573d6000803e3d6000fd5b505050506040513d601f19601f8201168201806040525081019061068e9190611126565b5050505050565b60008054906101000a900473ffffffffffffffffffffffffffffffffffffffff1681565b600060419050600160009054906101000a900473ffffffffffffffffffffffffffffffffffffffff1673ffffffffffffffffffffffffffffffffffffffff16634e6ec24733600160009054906101000a900473ffffffffffffffffffffffffffffffffffffffff1673ffffffffffffffffffffffffffffffffffffffff166332424aa36040518163ffffffff1660e01b81526004016020604051808303816000875af115801561076d573d6000803e3d6000fd5b505050506040513d601f19601f820116820180604052508101906107919190610f9c565b8461079c9190610ff8565b6040518363ffffffff1660e01b81526004016107b9929190611073565b600060405180830381600087803b1580156107d357600080fd5b505af11580156107e7573d6000803e3d6000fd5b5050505050565b6000339050600082905060008054906101000a900473ffffffffffffffffffffffffffffffffffffffff1673ffffffffffffffffffffffffffffffffffffffff1663e1f21c678330846040518463ffffffff1660e01b8152600401610855939291906110b7565b6020604051808303816000875af1158015610874573d6000803e3d6000fd5b505050506040513d601f19601f820116820180604052508101906108989190611126565b506108c560008054906101000a900473ffffffffffffffffffffffffffffffffffffffff16833084610cd5565b600160009054906101000a900473ffffffffffffffffffffffffffffffffffffffff1673ffffffffffffffffffffffffffffffffffffffff1663a9059cbb83856040518363ffffffff1660e01b8152600401610922929190611073565b6020604051808303816000875af1158015610941573d6000803e3d6000fd5b505050506040513d601f19601f820116820180604052508101906109659190611126565b50505050565b60008060008054906101000a900473ffffffffffffffffffffffffffffffffffffffff1673ffffffffffffffffffffffffffffffffffffffff166370a08231336040518263ffffffff1660e01b81526004016109c7919061109c565b602060405180830381865afa1580156109e4573d6000803e3d6000fd5b505050506040513d601f19601f82011682018060405250810190610a089190610f9c565b90508091505090565b60008060008054906101000a900473ffffffffffffffffffffffffffffffffffffffff1673ffffffffffffffffffffffffffffffffffffffff166370a08231306040518263ffffffff1660e01b8152600401610a6d919061109c565b602060405180830381865afa158015610a8a573d6000803e3d6000fd5b505050506040513d601f19601f82011682018060405250810190610aae9190610f9c565b90508091505090565b60606000821415610aff576040518060400160405280600181526020017f30000000000000000000000000000000000000000000000000000000000000008152509050610cd0565b600082905060005b60008214610b31578080610b1a90611153565b915050600a82610b2a91906111cb565b9150610b07565b6000600182610b4091906111fc565b67ffffffffffffffff811115610b5957610b58611252565b5b6040519080825280601f01601f191660200182016040528015610b8b5781602001600182028036833780820191505090505b5090506000600183610b9d91906111fc565b90505b60008614610cc857600181610bb59190611281565b9050600183610bc49190611281565b811415610c33577f2e00000000000000000000000000000000000000000000000000000000000000828281518110610bff57610bfe6112b5565b5b60200101907effffffffffffffffffffffffffffffffffffffffffffffffffffffffffffff1916908160001a905350610cc3565b6000600a8088610c4391906111cb565b610c4d9190610ff8565b87610c589190611281565b6030610c6491906112f1565b905060008160f81b905080848481518110610c8257610c816112b5565b5b60200101907effffffffffffffffffffffffffffffffffffffffffffffffffffffffffffff1916908160001a905350600a88610cbe91906111cb565b975050505b610ba0565b819450505050505b919050565b60008473ffffffffffffffffffffffffffffffffffffffff166323b872dd8585856040518463ffffffff1660e01b8152600401610d14939291906110b7565b6020604051808303816000875af1158015610d33573d6000803e3d6000fd5b505050506040513d601f19601f82011682018060405250810190610d579190611126565b905080610d99576040517f08c379a0000000000000000000000000000000000000000000000000000000008152600401610d9090611374565b60405180910390fd5b5050505050565b600073ffffffffffffffffffffffffffffffffffffffff82169050919050565b6000819050919050565b6000610de5610de0610ddb84610da0565b610dc0565b610da0565b9050919050565b6000610df782610dca565b9050919050565b6000610e0982610dec565b9050919050565b610e1981610dfe565b82525050565b6000602082019050610e346000830184610e10565b92915050565b600081519050919050565b600082825260208201905092915050565b60005b83811015610e74578082015181840152602081019050610e59565b83811115610e83576000848401525b50505050565b6000601f19601f8301169050919050565b6000610ea582610e3a565b610eaf8185610e45565b9350610ebf818560208601610e56565b610ec881610e89565b840191505092915050565b60006020820190508181036000830152610eed8184610e9a565b905092915050565b600080fd5b6000819050919050565b610f0d81610efa565b8114610f1857600080fd5b50565b600081359050610f2a81610f04565b92915050565b600060208284031215610f4657610f45610ef5565b5b6000610f5484828501610f1b565b91505092915050565b610f6681610efa565b82525050565b6000602082019050610f816000830184610f5d565b92915050565b600081519050610f9681610f04565b92915050565b600060208284031215610fb257610fb1610ef5565b5b6000610fc084828501610f87565b91505092915050565b7f4e487b7100000000000000000000000000000000000000000000000000000000600052601160045260246000fd5b600061100382610efa565b915061100e83610efa565b9250817fffffffffffffffffffffffffffffffffffffffffffffffffffffffffffffffff048311821515161561104757611046610fc9565b5b828202905092915050565b600061105d82610da0565b9050919050565b61106d81611052565b82525050565b60006040820190506110886000830185611064565b6110956020830184610f5d565b9392505050565b60006020820190506110b16000830184611064565b92915050565b60006060820190506110cc6000830186611064565b6110d96020830185611064565b6110e66040830184610f5d565b949350505050565b60008115159050919050565b611103816110ee565b811461110e57600080fd5b50565b600081519050611120816110fa565b92915050565b60006020828403121561113c5761113b610ef5565b5b600061114a84828501611111565b91505092915050565b600061115e82610efa565b91507fffffffffffffffffffffffffffffffffffffffffffffffffffffffffffffffff82141561119157611190610fc9565b5b600182019050919050565b7f4e487b7100000000000000000000000000000000000000000000000000000000600052601260045260246000fd5b60006111d682610efa565b91506111e183610efa565b9250826111f1576111f061119c565b5b828204905092915050565b600061120782610efa565b915061121283610efa565b9250827fffffffffffffffffffffffffffffffffffffffffffffffffffffffffffffffff0382111561124757611246610fc9565b5b828201905092915050565b7f4e487b7100000000000000000000000000000000000000000000000000000000600052604160045260246000fd5b600061128c82610efa565b915061129783610efa565b9250828210156112aa576112a9610fc9565b5b828203905092915050565b7f4e487b7100000000000000000000000000000000000000000000000000000000600052603260045260246000fd5b600060ff82169050919050565b60006112fc826112e4565b9150611307836112e4565b92508260ff0382111561131d5761131c610fc9565b5b828201905092915050565b7f546f6b656e207472616e73666572206661696c65640000000000000000000000600082015250565b600061135e601583610e45565b915061136982611328565b602082019050919050565b6000602082019050818103600083015261138d81611351565b905091905056fea2646970667358221220b1104782a3d87744fe696d5042c899ba9b00d35401b57d851b6229326b91790d64736f6c634300080a0033608060405260006002553480156200001657600080fd5b50604051620017fa380380620017fa83398181016040528101906200003c919062000492565b838382826000908051906020019062000057929190620001a5565b50816001908051906020019062000070929190620001a5565b508060028190555050505060006103e89050620000b03362000097620000ea60201b60201c565b83620000a4919062000571565b6200012e60201b60201c565b620000df83620000c5620000ea60201b60201c565b604d620000d3919062000571565b6200012e60201b60201c565b5050505050620006e2565b6000806001905060005b6002548110156200012657600a826200010e919062000571565b915080806200011d90620005d2565b915050620000f4565b508091505090565b806005600082825462000142919062000620565b9250508190555080600360008473ffffffffffffffffffffffffffffffffffffffff1673ffffffffffffffffffffffffffffffffffffffff16815260200190815260200160002060008282546200019a919062000620565b925050819055505050565b828054620001b390620006ac565b90600052602060002090601f016020900481019282620001d7576000855562000223565b82601f10620001f257805160ff191683800117855562000223565b8280016001018555821562000223579182015b828111156200022257825182559160200191906001019062000205565b5b50905062000232919062000236565b5090565b5b808211156200025157600081600090555060010162000237565b5090565b6000604051905090565b600080fd5b600080fd5b600080fd5b600080fd5b6000601f19601f8301169050919050565b7f4e487b7100000000000000000000000000000000000000000000000000000000600052604160045260246000fd5b620002be8262000273565b810181811067ffffffffffffffff82111715620002e057620002df62000284565b5b80604052505050565b6000620002f562000255565b9050620003038282620002b3565b919050565b600067ffffffffffffffff82111562000326576200032562000284565b5b620003318262000273565b9050602081019050919050565b60005b838110156200035e57808201518184015260208101905062000341565b838111156200036e576000848401525b50505050565b60006200038b620003858462000308565b620002e9565b905082815260208101848484011115620003aa57620003a96200026e565b5b620003b78482856200033e565b509392505050565b600082601f830112620003d757620003d662000269565b5b8151620003e984826020860162000374565b91505092915050565b600073ffffffffffffffffffffffffffffffffffffffff82169050919050565b60006200041f82620003f2565b9050919050565b620004318162000412565b81146200043d57600080fd5b50565b600081519050620004518162000426565b92915050565b6000819050919050565b6200046c8162000457565b81146200047857600080fd5b50565b6000815190506200048c8162000461565b92915050565b60008060008060808587031215620004af57620004ae6200025f565b5b600085015167ffffffffffffffff811115620004d057620004cf62000264565b5b620004de87828801620003bf565b945050602085015167ffffffffffffffff81111562000502576200050162000264565b5b6200051087828801620003bf565b9350506040620005238782880162000440565b925050606062000536878288016200047b565b91505092959194509250565b7f4e487b7100000000000000000000000000000000000000000000000000000000600052601160045260246000fd5b60006200057e8262000457565b91506200058b8362000457565b9250817fffffffffffffffffffffffffffffffffffffffffffffffffffffffffffffffff0483118215151615620005c757620005c662000542565b5b828202905092915050565b6000620005df8262000457565b91507fffffffffffffffffffffffffffffffffffffffffffffffffffffffffffffffff82141562000615576200061462000542565b5b600182019050919050565b60006200062d8262000457565b91506200063a8362000457565b9250827fffffffffffffffffffffffffffffffffffffffffffffffffffffffffffffffff0382111562000672576200067162000542565b5b828201905092915050565b7f4e487b7100000000000000000000000000000000000000000000000000000000600052602260045260246000fd5b60006002820490506001821680620006c557607f821691505b60208210811415620006dc57620006db6200067d565b5b50919050565b61110880620006f26000396000f3fe608060405234801561001057600080fd5b50600436106100b45760003560e01c80634e6ec247116100715780634e6ec2471461019157806370a08231146101ad57806395d89b41146101dd578063a9059cbb146101fb578063dd62ed3e1461022b578063e1f21c671461025b576100b4565b806306fdde03146100b9578063095ea7b3146100d757806318160ddd1461010757806323b872dd14610125578063313ce5671461015557806332424aa314610173575b600080fd5b6100c161028b565b6040516100ce9190610cfa565b60405180910390f35b6100f160048036038101906100ec9190610db5565b610319565b6040516100fe9190610e10565b60405180910390f35b61010f61040b565b60405161011c9190610e3a565b60405180910390f35b61013f600480360381019061013a9190610e55565b610415565b60405161014c9190610e10565b60405180910390f35b61015d610780565b60405161016a9190610e3a565b60405180910390f35b61017b610786565b6040516101889190610e3a565b60405180910390f35b6101ab60048036038101906101a69190610db5565b6107c4565b005b6101c760048036038101906101c29190610ea8565b610837565b6040516101d49190610e3a565b60405180910390f35b6101e5610880565b6040516101f29190610cfa565b60405180910390f35b61021560048036038101906102109190610db5565b61090e565b6040516102229190610e10565b60405180910390f35b61024560048036038101906102409190610ed5565b610ae7565b6040516102529190610e3a565b60405180910390f35b61027560048036038101906102709190610e55565b610b6e565b6040516102829190610e10565b60405180910390f35b6000805461029890610f44565b80601f01602080910402602001604051908101604052809291908181526020018280546102c490610f44565b80156103115780601f106102e657610100808354040283529160200191610311565b820191906000526020600020905b8154815290600101906020018083116102f457829003601f168201915b505050505081565b600081600460003373ffffffffffffffffffffffffffffffffffffffff1673ffffffffffffffffffffffffffffffffffffffff16815260200190815260200160002060008573ffffffffffffffffffffffffffffffffffffffff1673ffffffffffffffffffffffffffffffffffffffff168152602001908152602001600020819055508273ffffffffffffffffffffffffffffffffffffffff163373ffffffffffffffffffffffffffffffffffffffff167f8c5be1e5ebec7d5bd14f71427d1e84f3dd0314c0f7b2291e5b200ac8c7c3b925846040516103f99190610e3a565b60405180910390a36001905092915050565b6000600554905090565b6000600360008573ffffffffffffffffffffffffffffffffffffffff1673ffffffffffffffffffffffffffffffffffffffff1681526020019081526020016000205482111561046357600080fd5b600460008573ffffffffffffffffffffffffffffffffffffffff1673ffffffffffffffffffffffffffffffffffffffff16815260200190815260200160002060003373ffffffffffffffffffffffffffffffffffffffff1673ffffffffffffffffffffffffffffffffffffffff168152602001908152602001600020548211156104ec57600080fd5b81600360008673ffffffffffffffffffffffffffffffffffffffff1673ffffffffffffffffffffffffffffffffffffffff168152602001908152602001600020546105379190610fa5565b600360008673ffffffffffffffffffffffffffffffffffffffff1673ffffffffffffffffffffffffffffffffffffffff1681526020019081526020016000208190555081600460008673ffffffffffffffffffffffffffffffffffffffff1673ffffffffffffffffffffffffffffffffffffffff16815260200190815260200160002060003373ffffffffffffffffffffffffffffffffffffffff1673ffffffffffffffffffffffffffffffffffffffff168152602001908152602001600020546106029190610fd9565b600460008673ffffffffffffffffffffffffffffffffffffffff1673ffffffffffffffffffffffffffffffffffffffff16815260200190815260200160002060003373ffffffffffffffffffffffffffffffffffffffff1673ffffffffffffffffffffffffffffffffffffffff1681526020019081526020016000208190555081600360008573ffffffffffffffffffffffffffffffffffffffff1673ffffffffffffffffffffffffffffffffffffffff168152602001908152602001600020546106cd9190610fd9565b600360008573ffffffffffffffffffffffffffffffffffffffff1673ffffffffffffffffffffffffffffffffffffffff168152602001908152602001600020819055508273ffffffffffffffffffffffffffffffffffffffff168473ffffffffffffffffffffffffffffffffffffffff167fddf252ad1be2c89b69c2b068fc378daa952ba7f163c4a11628f55a4df523b3ef8460405161076d9190610e3a565b60405180910390a3600190509392505050565b60025481565b6000806001905060005b6002548110156107bc57600a826107a7919061102f565b915080806107b490611089565b915050610790565b508091505090565b80600560008282546107d69190610fd9565b9250508190555080600360008473ffffffffffffffffffffffffffffffffffffffff1673ffffffffffffffffffffffffffffffffffffffff168152602001908152602001600020600082825461082c9190610fd9565b925050819055505050565b6000600360008373ffffffffffffffffffffffffffffffffffffffff1673ffffffffffffffffffffffffffffffffffffffff168152602001908152602001600020549050919050565b6001805461088d90610f44565b80601f01602080910402602001604051908101604052809291908181526020018280546108b990610f44565b80156109065780601f106108db57610100808354040283529160200191610906565b820191906000526020600020905b8154815290600101906020018083116108e957829003601f168201915b505050505081565b6000600360003373ffffffffffffffffffffffffffffffffffffffff1673ffffffffffffffffffffffffffffffffffffffff1681526020019081526020016000205482111561095c57600080fd5b81600360003373ffffffffffffffffffffffffffffffffffffffff1673ffffffffffffffffffffffffffffffffffffffff168152602001908152602001600020546109a79190610fa5565b600360003373ffffffffffffffffffffffffffffffffffffffff1673ffffffffffffffffffffffffffffffffffffffff1681526020019081526020016000208190555081600360008573ffffffffffffffffffffffffffffffffffffffff1673ffffffffffffffffffffffffffffffffffffffff16815260200190815260200160002054610a359190610fd9565b600360008573ffffffffffffffffffffffffffffffffffffffff1673ffffffffffffffffffffffffffffffffffffffff168152602001908152602001600020819055508273ffffffffffffffffffffffffffffffffffffffff163373ffffffffffffffffffffffffffffffffffffffff167fddf252ad1be2c89b69c2b068fc378daa952ba7f163c4a11628f55a4df523b3ef84604051610ad59190610e3a565b60405180910390a36001905092915050565b6000600460008473ffffffffffffffffffffffffffffffffffffffff1673ffffffffffffffffffffffffffffffffffffffff16815260200190815260200160002060008373ffffffffffffffffffffffffffffffffffffffff1673ffffffffffffffffffffffffffffffffffffffff16815260200190815260200160002054905092915050565b600081600460008673ffffffffffffffffffffffffffffffffffffffff1673ffffffffffffffffffffffffffffffffffffffff16815260200190815260200160002060008573ffffffffffffffffffffffffffffffffffffffff1673ffffffffffffffffffffffffffffffffffffffff168152602001908152602001600020819055508273ffffffffffffffffffffffffffffffffffffffff168473ffffffffffffffffffffffffffffffffffffffff167f8c5be1e5ebec7d5bd14f71427d1e84f3dd0314c0f7b2291e5b200ac8c7c3b92584604051610c4e9190610e3a565b60405180910390a3600190509392505050565b600081519050919050565b600082825260208201905092915050565b60005b83811015610c9b578082015181840152602081019050610c80565b83811115610caa576000848401525b50505050565b6000601f19601f8301169050919050565b6000610ccc82610c61565b610cd68185610c6c565b9350610ce6818560208601610c7d565b610cef81610cb0565b840191505092915050565b60006020820190508181036000830152610d148184610cc1565b905092915050565b600080fd5b600073ffffffffffffffffffffffffffffffffffffffff82169050919050565b6000610d4c82610d21565b9050919050565b610d5c81610d41565b8114610d6757600080fd5b50565b600081359050610d7981610d53565b92915050565b6000819050919050565b610d9281610d7f565b8114610d9d57600080fd5b50565b600081359050610daf81610d89565b92915050565b60008060408385031215610dcc57610dcb610d1c565b5b6000610dda85828601610d6a565b9250506020610deb85828601610da0565b9150509250929050565b60008115159050919050565b610e0a81610df5565b82525050565b6000602082019050610e256000830184610e01565b92915050565b610e3481610d7f565b82525050565b6000602082019050610e4f6000830184610e2b565b92915050565b600080600060608486031215610e6e57610e6d610d1c565b5b6000610e7c86828701610d6a565b9350506020610e8d86828701610d6a565b9250506040610e9e86828701610da0565b9150509250925092565b600060208284031215610ebe57610ebd610d1c565b5b6000610ecc84828501610d6a565b91505092915050565b60008060408385031215610eec57610eeb610d1c565b5b6000610efa85828601610d6a565b9250506020610f0b85828601610d6a565b9150509250929050565b7f4e487b7100000000000000000000000000000000000000000000000000000000600052602260045260246000fd5b60006002820490506001821680610f5c57607f821691505b60208210811415610f7057610f6f610f15565b5b50919050565b7f4e487b7100000000000000000000000000000000000000000000000000000000600052601160045260246000fd5b6000610fb082610d7f565b9150610fbb83610d7f565b925082821015610fce57610fcd610f76565b5b828203905092915050565b6000610fe482610d7f565b9150610fef83610d7f565b9250827fffffffffffffffffffffffffffffffffffffffffffffffffffffffffffffffff0382111561102457611023610f76565b5b828201905092915050565b600061103a82610d7f565b915061104583610d7f565b9250817fffffffffffffffffffffffffffffffffffffffffffffffffffffffffffffffff048311821515161561107e5761107d610f76565b5b828202905092915050565b600061109482610d7f565b91507fffffffffffffffffffffffffffffffffffffffffffffffffffffffffffffffff8214156110c7576110c6610f76565b5b60018201905091905056fea2646970667358221220dd77c42d52b0379686afc4b7eb3d3794563253eaeb24960445959e9db99c007c64736f6c634300080a0033",
  "linkReferences": {},
  "deployedLinkReferences": {}
}